{
  "transactions": [
    {
      "hash": "0x7b7bbfcaf363c45a287a1a3d92836e89426fc1f3b9ef4f35a42f25251a0bd1f9",
      "transactionType": "CREATE",
      "contractName": "GnosisSafeProxyFactory",
      "contractAddress": "0xa6b71e26c5e0845f74c812102ca7114b6a896ab2",
      "function": "createProxyWithNonce(address,bytes,uint256):(address)",
      "arguments": [
        "3e5c63644e683549055b9be8653de26e0b4cd36e",
        "b63e800d00000000000000000000000000000000000000000000000000000000000001000000000000000000000000000000000000000000000000000000000000000002000000000000000000000000000000000000000000000000000000000000000000000000000000000000000000000000000000000000000000000000000001c0000000000000000000000000f48f2b2d2a534e402487b3ee7c18c33aec0fe5e400000000000000000000000000000000000000000000000000000000000000000000000000000000000000000000000000000000000000000000000000000000000000000000000000000000000000000000000000000000000000000000000000000000000000000000000000000000000000000000000000000000000000050000000000000000000000004fd9d0ee6d6564e80a9ee00c0163fc952d0a45ed000000000000000000000000e3ef6f44c0aecb8cf518a85d2739021aa3cd02d9000000000000000000000000a4dde78906b73133296d43f23ca4b41009059123000000000000000000000000a3c2e2fbf83ab8e690c4e7e1c30fa3778b7e4e1e00000000000000000000000019a351b9f2991a3dd71f4ca38f98ad6f418ed9ea0000000000000000000000000000000000000000000000000000000000000000",
        "1a4"
      ],
      "transaction": {
        "type": "0x02",
        "from": "0xa5a7468f177d94212cd0fdc0886ee732155c47e9",
        "to": "0xa6b71e26c5e0845f74c812102ca7114b6a896ab2",
        "gas": "0x76db6",
        "value": "0x0",
        "data": "0x1688f0b90000000000000000000000003e5c63644e683549055b9be8653de26e0b4cd36e000000000000000000000000000000000000000000000000000000000000006000000000000000000000000000000000000000000000000000000000000001a400000000000000000000000000000000000000000000000000000000000001e4b63e800d00000000000000000000000000000000000000000000000000000000000001000000000000000000000000000000000000000000000000000000000000000002000000000000000000000000000000000000000000000000000000000000000000000000000000000000000000000000000000000000000000000000000001c0000000000000000000000000f48f2b2d2a534e402487b3ee7c18c33aec0fe5e400000000000000000000000000000000000000000000000000000000000000000000000000000000000000000000000000000000000000000000000000000000000000000000000000000000000000000000000000000000000000000000000000000000000000000000000000000000000000000000000000000000000000050000000000000000000000004fd9d0ee6d6564e80a9ee00c0163fc952d0a45ed000000000000000000000000e3ef6f44c0aecb8cf518a85d2739021aa3cd02d9000000000000000000000000a4dde78906b73133296d43f23ca4b41009059123000000000000000000000000a3c2e2fbf83ab8e690c4e7e1c30fa3778b7e4e1e00000000000000000000000019a351b9f2991a3dd71f4ca38f98ad6f418ed9ea000000000000000000000000000000000000000000000000000000000000000000000000000000000000000000000000000000000000000000000000",
        "nonce": "0x0",
        "accessList": []
      },
      "additionalContracts": [
        {
          "transactionType": "CREATE2",
          "address": "0xd2230a5c50d74bd1046c74fbb22b16ac7636d2c7",
          "initCode": "608060405234801561001057600080fd5b506040516101e63803806101e68339818101604052602081101561003357600080fd5b8101908080519060200190929190505050600073ffffffffffffffffffffffffffffffffffffffff168173ffffffffffffffffffffffffffffffffffffffff1614156100ca576040517f08c379a00000000000000000000000000000000000000000000000000000000081526004018080602001828103825260228152602001806101c46022913960400191505060405180910390fd5b806000806101000a81548173ffffffffffffffffffffffffffffffffffffffff021916908373ffffffffffffffffffffffffffffffffffffffff1602179055505060ab806101196000396000f3fe608060405273ffffffffffffffffffffffffffffffffffffffff600054167fa619486e0000000000000000000000000000000000000000000000000000000060003514156050578060005260206000f35b3660008037600080366000845af43d6000803e60008114156070573d6000fd5b3d6000f3fea2646970667358221220d1429297349653a4918076d650332de1a1068c5f3e07c5c82360c277770b955264736f6c63430007060033496e76616c69642073696e676c65746f6e20616464726573732070726f76696465640000000000000000000000003e5c63644e683549055b9be8653de26e0b4cd36e"
        }
      ]
    }
  ],
  "receipts": [],
  "libraries": [],
  "pending": [
    "0x7b7bbfcaf363c45a287a1a3d92836e89426fc1f3b9ef4f35a42f25251a0bd1f9"
  ],
  "path": "/Users/shunkakinoki/ghq/github.com/wagumi/wagumi/broadcast/GnosisDeployer.s.sol/80001/run-latest.json",
  "returns": {},
  "timestamp": 1661573075,
  "commit": "c87d6f1"
}